:100000000C9433030C948E2B0C9450030C945003DB
:100010000C9450030C9450030C9450030C94500314
:100020000C9450030C9450030C94BC300C949031FD
:100030000C94382A0C9450030C9450030C945003E5
:100040000C9450030C9450030C9450030C945003E4
:100050000C9450030C94B02A0C9450030C9450034D
:100060000C9450030C9450030C9450030C945003C4
:100070000C9450030C9450030C9450030C945003B4
:100080000C9450030C9450030C9450030C945003A4
:100090000C9450030C9450030C9450030C94500394
:1000A0000C9450030C9450030C94500335001E0024
:1000B0001F0020002100220021522B0014001A00F2
:1000C0000800150017002F02290004001600070081
:1000D00009000A004B43E1001D001B000600190047
:1000E00005004E00310257004600552431212C00F6
:1000F00026022D002700260025002400230021527F
:100100002E00130012000C0018001C0030023400F6
:1001100033000F000E000D000B004D42E5003800CB
:1001200037003600100011004A004F005200510005
:100130005000E6002A00280001003A003B003C0085
:100140003D003E00010001001E021F022F0230028E
:10015000310201000100200221022F003000350091
:1001600001000100310023022602270235020100AE
:100170000100010001000100010001000100000078
:1001800043004200410040003F00010000005600D3
:10019000610060005F0054000100000057005E0035
:1001A0005D005C0055000100000058005B005A0033
:1001B0005900000001000000580063006200620066
:1001C0000100010001000100010001000100010027
:1001D000010000000000CD000000D9000000010077
:1001E0000000CF00CE00D000DA00000001000000C7
:1001F00000000000000000000000010000000000FE
:1002000000000000D100D200010001000100010047
:1002100001000100010001000000000000000000DA
:10022000000000000100000000004F0052005100DB
:10023000500000000000000000000000000000006E
:1002400001000000000000000000000001000100AB
:10025000000045003B003C003D003E0023780000CC
:10026000007C2B78207821782478000000000000A2
:10027000000000000000000001000000000000007D
:10028000000000000000000000000000000000006E
:100290000000000000000000430042004100400058
:1002A0003F00267800000000000027782878257895
:1002B000000000000000000000000000000001003D
:1002C000000000000000000000000000000000002E
:1002D0000000000000000000000000001E0F0500EC
:1002E000047F3F1F643214643214783C1E1E140ACB
:1002F000052223252628292A2C2D2F303233353666
:10030000383A3B3D3E4042434547494A4C4E5051A6
:10031000535557595A5C5E6062646668696B6D6FCD
:1003200071737577797B7D7F81838587898A8C8ED0
:1003300090929496989A9C9E9FA1A3A5A7A8AAACD8
:10034000AEAFB1B3B4B6B8B9BBBCBEBFC1C2C3C512
:10035000C6C7C9CACBCCCDCED0D1D2D2D3D4D5D6B4
:10036000D7D7D8D9D9DADADBDBDBDCDCDCDCDCDDE7
:10037000DDDDDDDCDCDCDCDCDBDBDBDADAD9D9D8CB
:10038000D7D7D6D5D4D3D2D2D1D0CECDCCCBCAC963
:10039000C7C6C5C3C2C1BFBEBCBBB9B8B6B4B3B192
:1003A000AFAEACAAA8A7A5A3A19F9E9C9A9896942D
:1003B00092908E8C8A89878583817F7D7B79777502
:1003C00073716F6D6B6968666462605E5C5A5957E1
:1003D000555351504E4C4A4947454342403E3D3BA0
:1003E0003A3836353332302F2D2C2A29282625232A
:1003F00022FFAA7F55400001010101010101010115
:1004000002020202020202020203030303030303C5
:100410000304040404040404050505050506060692
:100420000606070707070708080808090909090A4F
:100430000A0A0B0B0B0C0C0C0D0D0D0E0E0E0F0FF4
:100440000F10101111111212131314141515161682
:100450001717181819191A1A1B1B1C1D1D1E1E1FF1
:100460002020212222232424252626272829292A40
:100470002B2C2D2D2E2F3031323233343536373868
:10048000393A3B3C3D3E3F40414243444546474864
:10049000494A4C4D4E4F50515354555658595A5B3A
:1004A0005D5E5F616264656668696B6C6D6F7072DA
:1004B000737577787A7B7D7E8082838587888A8C46
:1004C0008E8F91939596989A9C9EA0A2A3A5A7A97A
:1004D000ABADAFB1B3B5B7BABCBEC0C2C4C6C9CB71
:1004E000CDCFD1D4D6D8DBDDDFE2E4E7E9EBEEF027
:1004F000F3F5F8FAFDFF0C035200650064006F008D
:10050000780000001403460061006C006200610086
:100510007400650063006800000004030904090218
:100520003B00020100A0FA090400000103010100E0
:10053000092111010001224400070581030800017F
:10054000090401000103000000092111010001223A
:10055000B60007058203200001120100020000001E
:1005600008444D445200010102000105010902A1A5
:100570000185020901A100050919012908150025B5
:1005800001950875018102050109300931158125A0
:100590007F95027508810609381581257F950175BB
:1005A000088106050C0A38021581257F950175081A
:1005B0008106C0C005010980A101850319012AB780
:1005C00000150126B700950175108100C0050C09C2
:1005D00001A101850419012AA002150126A0029596
:1005E0000175108100C005010906A10185060507F6
:1005F00019E029E715002501950875018102050715
:10060000190029EF1500250195F0750181020508F3
:10061000190129059505750191029501750391014F
:10062000C005010906A101050719E029E715002504
:100630000195087501810295017508810105071969
:100640000029FF150026FF009506750881000508A2
:1006500019012905150025019505750191029501DE
:1006600075039101C00011241FBECFEFDAE0DEBF99
:10067000CDBF12E0A0E0B1E0E4EAFBE602C00590E5
:100680000D92AA32B107D9F724E0AAE2B2E001C084
:100690001D92A632B207E1F70E94EC160C94473582
:1006A0000C9400008430B8F46A30A8F4473098F411
:1006B00050E097E0699F400D511D1124FA0196E426
:1006C000899FE00DF11D1124EE0FFF1FE455FF4F30
:1006D00085919491089581E090E008950E945203DD
:1006E000089582E090E008958230910540F4880FEB
:1006F000991FFC01EC5FFE4F80819181089590E08D
:1007000080E008950E94740308959C013A95211594
:100710003F4150F5FC01EE27F170BC016627727075
:10072000AC01442754709C012227387094FF0EC0FE
:1007300080E1EF2B09F480E0672B09F08062452B04
:1007400009F08064232B89F08068089581E0EF2B05
:1007500009F480E0672B09F08260452B09F0846082
:10076000232B19F08860089580E00895CF93DF93DC
:10077000EB010E948503FE010995DF91CF91089559
:10078000CF93DF93EC01805E9109089720F066EE2D
:1007900078E0209711F467EA76E0CE010E94B60374
:1007A0008C2F0E949905DF91CF91089581E00895E3
:1007B0000E94D60308950E94D603089581E008950B
:1007C0000E94D60308950E94D60308950E94E30371
:1007D0000895089508950E94E903089508950895DD
:1007E000A6E0B0E0E6EFF3E00C94F33349835A83DC
:1007F0009E833091310289819A8131111AC03E81E4
:10080000332399F0222389F00E94520A182F682F6F
:1008100089819A810E942E0A69817A81812F0E94A2
:1008200090112696E3E00C940F340E94400A182F92
:10083000F3CF0E94520A69817A81F1CFFC01262F01
:100840004081518162817381848195810E94F0038E
:100850000895CF93DF93EC0161E00E941E04BE0176
:100860000E94D803882359F061E0CE010E941E0443
:10087000BE010E94DB038170DF91CF91089580E07B
:10088000FACF0F931F93CF93DF93EC0160E00E94A8
:100890001E048C01BE010E94EA03BE01C8010E9431
:1008A000EB03DF91CF911F910F91089521E030E08C
:1008B000A90102C0440F551F8A95E2F7CA010E94A0
:1008C00050090895CF93C82F81E090E00C2E02C00C
:1008D000880F991F0A94E2F70E94D60E8C2F0E946F
:1008E0005604CF91089581E008950E9473040895FD
:1008F0000E9473040895CF93C82F0E9403098C2F80
:100900000E9475048C2F0E9478042FEF84E39CE0F2
:10091000215080409040E1F700C00000CF91089541
:1009200081E00E947B040E94D42A089580E00E9406
:100930007B040E94E52A08950F931F93CF93DF93C2
:100940008C0161E00E941E04EC01F8018581811197
:100950000E94511FB801CE010E94E003811106C020
:1009600080E0DF91CF911F910F910895B801CE01E2
:100970000E94E6038823A1F3B801CE010E943E2223
:10098000882371F3B801CE010E949227882341F396
:10099000B801CE010E94CF23882311F3B801CE0104
:1009A0000E94F9208823E1F2B801CE010E940617C7
:1009B0008823B1F2B801CE010E94DF12882381F2B0
:1009C000F8018581882361F0C330FCE7DF07E9F097
:1009D00058F4C115ECE7DE07A9F0C130DC47B9F0E7
:1009E000C8010E94DE03BDCFCB358CE7D807A9F044
:1009F000CC35ECE7DE0771F0CA35DC4789F70E9499
:100A0000B10EEECF0E949004ABCF0E94B90E0E94AF
:100A10009604A6CF0E94A70EE3CF0E94B50EE0CFAA
:100A20000E94EE030E94FA290E94340508950E9454
:100A300038050E94EF030E94FF29089581E0089580
:100A40000895CF93DF93D82F0E941E05C82F8823C7
:100A500019F08D2F0E9420058C2FDF91CF910895E2
:100A600008950E942105089580E00E9431050895AF
:100A70000E94DB270E9431050895CF930E94DB2757
:100A8000C82F80912C028C1779F0C0932C020E9401
:100A9000A42A60932D0270932E0280932F029093CC
:100AA00030028C2F0E943105CF910895ADE0B0E067
:100AB000ECE5F5E00C94F433488759876A877B8727
:100AC0008C879D8791110E94A20D1F8286E0FE01F6
:100AD0003896DE01119601900D928A95E1F78D818D
:100AE00081110DC029813A814B815C816D817E81AC
:100AF0008F810E94E90C2D96E2E00C941034CE0117
:100B000001960E9429048111EDCFF5CFFC012481CB
:100B1000213021F4808191810E94840A0895662306
:100B200029F00E9430250E94032608950E948A25FC
:100B3000FACFCF93C82F8823C9F08238C9F40E9416
:100B4000EF2781FD13C089E30E9411290E944B0EFB
:100B50002FEF87EE93E0215080409040E1F700C0F6
:100B6000000089E30E942B290E944B0ECF9108952B
:100B70008338A1F40E94EF2780FDF8CF83E50E941F
:100B800011290E944B0E2FEF81EE94E021508040FE
:100B90009040E1F700C0000083E5E4CF8438A1F481
:100BA0000E94EF2782FDE2CF87E40E9411290E9474
:100BB0004B0E2FEF81EE94E0215080409040E1F702
:100BC00000C0000087E4CECF8CEF8C0F813A98F400
:100BD0008C2F0E9426208111C9CF8C2F0E9485283E
:100BE000882329F08C2F0E942B290E944B0E8C2FDA
:100BF0000E941129B9CF80E28C0F883048F4C77069
:100C000081E001C0880FCA95EAF70E94850DACCF3C
:100C1000EBE5EC0FE33040F4F0E0E355FE4F80816C
:100C200090E00E941928A2CFE8E5EC0FEB3150F4D8
:100C3000F0E0EE0FFF1FE958FE4F808191810E9486
:100C40003E2894CF83E38C0F833108F08FCF61E08F
:100C50008C2F0E948F058ACF882309F456C08238D2
:100C600079F40E94EF2781FF50C089E30E94112987
:100C70000E944B0E89E30E942B290E944B0E08957F
:100C8000833859F40E94EF2780FF3FC083E50E941C
:100C900011290E944B0E83E5EECF843859F40E944F
:100CA000EF2782FF32C087E40E9411290E944B0E79
:100CB00087E4E1CF9CEF980F913AE8F290E2980F29
:100CC000983050F4877091E001C0990F8A95EAF747
:100CD000892F0E948B0DD1CF9BE5980F933028F47C
:100CE00090E080E00E941928089598E5980F9B31C4
:100CF00028F490E080E00E943E28089593E3980F46
:100D0000933118F460E00E948F0508951F93CF93EC
:100D1000DF93182FEB010E949905209739F4812F5A
:100D20000E942C06DF91CF911F9108958FE99FE0DB
:100D30000197F1F700C000002197EFCF70E060E06D
:100D4000893311F460E570E00E94860608958823D7
:100D500021F00E94850D0E944B0E0895882321F0FA
:100D60000E948B0D0E944B0E0895B0E0A0E0EBEBCB
:100D7000F6E00C94ED336C01D62FC72FFC011581E2
:100D8000068102950F700E947B0DE82E8823F9F0F2
:100D9000E12E1123E1F08C2F807F803461F080E21E
:100DA0008D0F883008F18C2F807E803221F4D23074
:100DB000D8F00023C9F08091C80382FF15C082E0FB
:100DC0000E947B0E0E947B0D91E0E82EE926BC2E4E
:100DD000B2949FE0B922FBE0FB15B8F1EB2DF0E0F7
:100DE000E75BFA4C0C94AD33E12CF1CF0C2F0F7074
:100DF000C07F11F00295007F112399F0002359F074
:100E000080E28D0F883010F0D11107C0802F0E9432
:100E1000850D0E944B0E8D2F48C0802F0E94950D8E
:100E2000F8CF8D2F0E942C06002379F080E28D0FE1
:100E3000883010F0D11104C0802F0E948B0D03C0A8
:100E4000802F0E949B0D0E944B0EEB2DE850FF0B54
:100E5000349708F06BC10E94DB270E943105CDB7A3
:100E6000DEB7E9E00C9409342C2F2F70F22EC07FEE
:100E7000C03219F0F29480EFF822DD2341F0D13036
:100E8000C9F1112309F443C00023E9F0C4CF8091D4
:100E9000C80382FD14C0112359F0FF2029F08F2DC3
:100EA0000E94850D0E944B0E80E00E949905CDCFD7
:100EB00080E00E942C06FF2041F28F2DBECF11232F
:100EC00069F0011104C08F2D0E94A706BECF01302A
:100ED00009F0BBCF8F2D0E94C80DB7CF0111B5CF40
:100EE0008F2D0E94AE068F2D0E94D40D8F2D0E9453
:100EF000B80DABCF112321F0063008F0A6CFE3CF19
:100F0000053008F0A2CF8F2D0E94AE069ECF0023A1
:100F1000D1F3D93349F43FEF87EE93E0315080406D
:100F20009040E1F700C000008D2F0E942C068DCF6D
:100F30008C2F86958695837069F0813009F085CF76
:100F40008D2F9C2F9370111102C080E090E00E94C1
:100F50003E287BCF8D2F9C2F9370111102C080E013
:100F600090E00E94192871CF612F8D2F0E948F056C
:100F70006CCF8C2F8370A1F5111167CF4D2F429547
:100F800046954770440F440F2D2F2F7030E0042EEC
:100F900002C0220F331F0A94E2F790E080E0D4FFF2
:100FA00009C08FE090E002C0880F991F4A95E2F7D0
:100FB00080959095C695C695C370822B932BC230B1
:100FC00049F058F4C13019F00E945C093ECF0E94EC
:100FD00053093BCF0E94650938CF0E94500935CF95
:100FE0008695112311F08C2F8170882309F42DCF61
:100FF0004D2F429546954770440F440F2D2F2F706B
:1010000030E0042E02C0220F331F0A94E2F790E072
:1010100080E0D4FF09C08FE090E002C0880F991FE4
:101020004A95E2F780959095C695C695C370822B38
:10103000932BC23049F058F4C13019F00E94C7090F
:1010400004CF0E94BE0901CF0E94D009FECE0E94AB
:101050007409FBCECF70112329F08C2F0E948C09CC
:101060008D2F32CF8D2F0E94AE068C2F0E949C09AF
:10107000ECCED23F41F160F4D03FB9F0D13F81F0E6
:10108000112309F443C00111C6CE8C2F8F711FC0EC
:10109000D33F01F1D43FA1F78091C80382FD24C062
:1010A0008C2F8F71112311F312C0112341F00530E1
:1010B00008F0CBCE8C2F8F710E94AE09C6CE0630C1
:1010C00008F0C3CEF7CF8C2F8F711111CFCF0E94B4
:1010D0008C09BBCE112329F08C2F8F710E948009BF
:1010E000B4CE0E947B09B1CE112331F063E08C2F86
:1010F0008F710E945D0EA9CE81E00E947B0E0230AE
:1011000008F4A3CE82E00E947B0E9FCE002359F00C
:10111000D93309F009CFEFEFF7EE23E0E150F040CB
:101120002040E1F7FFCE8C2F8F71A0CFEE2009F485
:1011300096CE0E94770D80FD92CEF60115820E9418
:10114000710D0E948C09C6010E94C3080E94710D96
:101150000E949C0984CE0F931F93CF93DF93EC01E1
:10116000688179818D810E948F0A8C010E94D90942
:101170000E944F09B801CE010E94B506DF91CF91C0
:101180001F910F910895CF93DF93EC018C818823F9
:1011900099F0CE010E949C04811111C00E947B0D28
:1011A000882351F08D81882339F08091C80382FF14
:1011B00003C082E00E947B0EDF91CF910895CE01A3
:1011C0000E94AB08CE010E944104F6CF882321F093
:1011D0000E94950D0E944B0E089590E080E00E94C1
:1011E000192890E080E00E943E280E94A20D0E94F3
:1011F0004B0E0E941F260E94032608950E94452937
:101200000E94ED0808950E94920D0E94FE08089524
:1012100092959F70963091F058F4925F9F70923043
:1012200058F4803F19F030F4883E30F481E008959E
:101230009A5FF4CF843FD1F380E00895883EB0F305
:10124000813FD1F7F3CFFC012481222339F0808143
:1012500091810E94840A0E940809089580E00895FF
:10126000A6E0B0E0E6E3F9E00C94F4332696E2E081
:101270000C941034A7E0B0E0E0E4F9E00C94F4330F
:101280002796E2E00C94103408950E9444090895D2
:101290000E94450990935902809358020895089539
:1012A0000E94480908952091580230915902822BDA
:1012B000932B0E94480908952091580230915902B9
:1012C000822393230E944809089520915802309167
:1012D0005902822793270E94480908950E944409D1
:1012E00008950E946E0908950E9471099093570213
:1012F00080935602089590E080E00E94740908955A
:1013000021E030E0A90102C0440F551F8A95E2F7A1
:10131000CA010E947409089521E030E002C0220F42
:10132000331F8A95E2F78091560290915702822BE3
:10133000932B0E947409089521E030E002C0220F2F
:10134000331F8A95E2F7209530958091560290914F
:101350005702822393230E947409089521E030E00C
:1013600002C0220F331F8A95E2F7809156029091B6
:101370005702822793270E947409089520915602EC
:1013800030915702822B932B0E947409089520916B
:10139000560230915702822393230E9474090895C4
:1013A0002091560230915702822793270E94740998
:1013B00008950895262F277091E001C0990F2A956E
:1013C000EAF723E0769567952A95E1F7660F771F90
:1013D000660F771FFA01E60FF71F50E040E0682F15
:1013E00070E08191DF0111979B01042E02C03695B8
:1013F00027950A94E2F72170219528272923282789
:101400002C934F5F5F4F4430510559F70895A82F33
:10141000A77023E0969587952A95E1F7880F991F85
:10142000880F991FFB01E80FF91F50E040E080E0B2
:10143000219130E00A2E02C0369527950A94E2F7F2
:1014400021703327042E01C0220F0A94EAF7822B61
:101450004F5F5F4F4430510559F70895262F9A305A
:1014600070F4873060F4682F70E087E0989F600D1B
:10147000711D112442E352E0822F0E94DA0908957F
:10148000292F9A3068F4873058F490E062E372E0D4
:1014900037E0239F800D911D11240E94070A0895B3
:1014A00080E00895B0E0A0E0E8E5FAE00C94ED33C8
:1014B0007C01009156021091570280915802909140
:1014C0005902082B192BCFE0D0E0CC24C394D12CA7
:1014D000BC2EC6010C2E02C0880F991F0A94E2F799
:1014E00080239123892B49F4219790F7B12C8B2DE0
:1014F000CDB7DEB7E9E00C940934B7018C2F0E9418
:101500009C11019789F3F3CFCF93DF93EC010E94F5
:10151000520ABE010E949C11DF91CF9108951F9342
:10152000CF93DF93EB0190913102992339F0CB01F6
:101530000E94840ADF91CF911F910895882369F05A
:10154000CB010E94520A182F682FCE010E942E0A4A
:10155000BE01812F0E949C11EDCFCB010E94400A59
:10156000182FF6CF1F93CF93DF93C0915A0217E045
:1015700080915B028C1304C0DF91CF911F9108957D
:10158000D0E01C9FF0011D9FF00D1124E45AFD4F87
:1015900020813181428153816481758186810E94DD
:1015A0003A092196C770E4CF2091940230919502B8
:1015B0004091960250919702609198027091990221
:1015C00080919A020E943A090895CF93DF93809107
:1015D0009A02807F09F04DC080919902882309F416
:1015E00048C0E0915A0250915B02C0919502D0919F
:1015F0009402609196027091970247E05E17C9F1DC
:101600008E2F90E0E49FF0011124E45AFD4F2481D5
:10161000222391F1489FF001499FF00D1124DF0131
:10162000A45ABD4F11962C9111972C1325C02C91C3
:101630002D1322C015962C91159721111DC01296BD
:101640002D913C91261B370B22333105A8F4809154
:101650009A028F70806180939A02EE59FD4F8081CB
:101660008F708061808384E992E00E94C3080E94A9
:10167000B20ADF91CF910895FC013196E770BECF99
:10168000482F20915A0290915B0257E0291302C023
:1016900080E0089530E0529FF001539FF00D112437
:1016A000E45AFD4F8181681306C08081481303C04E
:1016B00085818111EECF2F5F3F4F2770E7CFA4E1E7
:1016C000B0E0E5E6FBE00C94EA338C0186E0F8013B
:1016D000DE011F9601900D928A95E1F7F801848151
:1016E000E58094E9A92E92E0B92E9091980291118B
:1016F0001FC08823D1F0EE20A9F0C8010E94230961
:10170000F82E882379F087E0F801D50101900D9239
:101710008A95E1F7C5010E9486050E94E50A0E94AC
:10172000D40A5FC0C8010E94C308FF24F39459C0C3
:10173000C080D18082809380F0909902209196029F
:1017400030919702A401421B530BFF2009F4F9C00A
:101750004233510508F0A7C0882309F442C0909194
:10176000950280919A02282F207F09F05CC09D117C
:1017700016C090919402C91212C0E1104EC08F7031
:10178000806180939A020E94D40A84E992E00E94C8
:10179000C30880919A02F8018683F12C22C0E110DF
:1017A0003CC06D2D8C2D0E94400B6D2D8C2D0E9408
:1017B000400BE82E8111F1CFCF86D88A8F8598898A
:1017C0000E94840A292F22952F70243078F49F706C
:1017D0002230A8F09923B9F0F8019681907F99F40E
:1017E000FE2C8F2D6496ECE00C9406342A5F2F704B
:1017F000223068F0C8010E94C308EF2CF1CF992372
:1018000011F0882369F3805E883050F3F3CF803F76
:1018100038F3815F833070F7E3CF80919A02816063
:1018200080939A02BACF9D1113C090919402C9126D
:101830000FC0E1100DC08683C8010E94C30887E075
:10184000F801A4E9B2E001900D928A95E1F767CF23
:10185000C8010E942309882309F464CFEE2009F40B
:1018600061CF80919A02803288F020919402309169
:101870009502398728879B868A86909198029C8753
:101880001D868E87CE0108960E94C30887E0F80166
:10189000A4E9B2E001900D928A95E1F70E94E50A71
:1018A0000E94D40A42CF90919A02292F207FA1F45E
:1018B000682D9A8A898AA6017A899E2D0E9430090C
:1018C00084E992E00E94C30887E0F50111928A95AD
:1018D000E9F70E94D40A61CF882309F482CF80916E
:1018E00095028D1110C080919402C8120CC0E110B5
:1018F0000AC09683C8010E94C30887E0F5011192CF
:101900008A95E9F76ECFC8010E942309882309F45C
:1019100009CFEE2009F406CF80919A02803208F4B4
:10192000B5CF20919402309195023A8329839C820D
:101930008B82909198029D831E828F83CE010196A7
:10194000A3CF42335105B8F5882309F4EECEFE2C1F
:10195000EE2009F4E7CE809195028D111EC0809192
:101960009402C8121AC080919A0280FD0DC0982F6F
:10197000907F51F08683903F09F45ECF982F907F3F
:10198000905F8F70892B57CF87E0F801A4E9B2E010
:1019900001900D928A95E1F724CFC8010E94230996
:1019A000811174CF80919A02816080939A02C8015C
:1019B0000E94C30816CF682D9A8A898AA6017A895F
:1019C0009E2D0E94300987E0F50111928A95E9F772
:1019D000A6CEAEE0B0E0EFEEFCE00C94F333288747
:1019E00039874A875B876C877D878E87CE0108960B
:1019F0000E945F0B8823B1F06C85662341F0288537
:101A000039854A855B857D858E850E943A0917E078
:101A100080915A0290915B0289133DC02E96E3E0BB
:101A20000C940F3487E0FE013896DE011196019088
:101A30000D928A95E1F78C85882349F320915B020A
:101A400030E0C90101968770992740915A024817E2
:101A5000190699F097E0929FD001939FB00D112441
:101A6000A45ABD4FFE01319601900D929A95E1F76F
:101A700080935B020E94B20ACACF0E9403091092AF
:101A80005B0210925A0287E0E4E9F2E0DF011D9266
:101A90008A95E9F7BCCF819FC0011124845A9D4FDC
:101AA0000E945F0B882309F4B9CFE0915A021E9F70
:101AB000F0011124E45AFD4F20813181428153818C
:101AC0006481758186810E943A0980915A0290E072
:101AD00001968770992780935A029ACF8091C40209
:101AE00008958091C3028695869586950895809184
:101AF000C302877008959091C302977081E009F442
:101B000080E008958091F10208959091F102892B6F
:101B10008093F102089580959091F102982390931B
:101B2000F10208951092F10208959091F002892B2C
:101B30008093F002089580959091F00298239093FD
:101B4000F00208951092F00208958093EF02089534
:101B50001092EF0208958093EE0208951092EE0223
:101B600008958091C502089508950E94B40D0895C6
:101B70009091C402292F282331F0809589238093E6
:101B8000C4020E94B50D089508950E94C40D0895E1
:101B90009091C502292F2823281729F0982B90937C
:101BA000C5020E94C50D08959091C502292F2823D2
:101BB00031F0809589238093C5020E94C50D089558
:101BC0008091C502882329F01092C50280E00E940E
:101BD000C50D0895CF938091F102C091F002C82BFA
:101BE0008091C502882331F0C82B0E94632881119F
:101BF0000E94E00D8091EE0280958C239091EF027F
:101C0000892BCF910895CF93DF93C0910A01D09192
:101C10000B010E94EA0D8883C0910A01D0910B014B
:101C200048E050E06BEB72E0CE010E94BA34892BA1
:101C300059F088E0FE01ABEBB2E001900D928A957D
:101C4000E1F7CE010E94F227DF91CF910895CF9363
:101C5000DF93C0910801D09109010E94EA0D8983A8
:101C6000C0910801D091090140E250E06BE972E0B7
:101C7000CE010E94BA34892B59F080E2FE01ABE913
:101C8000B2E001900D928A95E1F7CE010E94FD2706
:101C9000DF91CF9108950E94D529813039F4809148
:101CA000C70387FF03C00E94270E08950E94030EFA
:101CB000089508950E94590E08959091C80392FFC7
:101CC00011C098E0899F90011124622B6093C30298
:101CD0000E948C098091C3028695869586950E9404
:101CE0005A0E08950E948C0908951092C30280E054
:101CF0000E945A0E08959091C30280958923809383
:101D0000C302282F277069F4891759F09091C803EE
:101D100092FF07C08695869586950E949C090E9431
:101D2000750E08959091C80392FB222720F9281779
:101D300069F080FB92F99093C8038091C70390915A
:101D4000C8030E94E10E82E00E947B0E08958091FC
:101D5000C80382FB882780F991E089270E94920EB0
:101D6000089581E00E94920E089580E00E94920EF4
:101D700008956FEF7FEF90E080E00E9412350895A4
:101D800090E080E00E94DE3421E0853E9E4F09F025
:101D900020E0822F089582E090E00E94D0340895E0
:101DA00083E090E00E94D03490E00895682F83E0B3
:101DB00090E00E94F434089584E090E00E94DE34C4
:101DC0000895BC0184E090E00E9412350895AB01B3
:101DD000BC018FE090E00E9406350895AB01BC0184
:101DE00083E190E00E940635089560E070E0CB0149
:101DF0000E94EE0E089560E070E0CB010E94E70EB5
:101E00000E94F50E0895A8E0B0E0E9E0FFE00C9430
:101E1000F43365EE7EEF90E080E00E94123560E0E2
:101E200082E090E00E94F43481E090E090935902C7
:101E3000809358020E94D60E60E074E184E090E046
:101E40000E94123560E086E090E00E94F43460E089
:101E500087E090E00E94F43440E050E0BA0188E06E
:101E600090E00E94063560E083E290E00E94F43446
:101E700060E08CE090E00E94F43460E08DE090E05F
:101E80000E94F43419821A821B821C821D821E82D7
:101E90001F82188648E050E067E170E0CE010196AD
:101EA0000E94E43440E050E0BA018FE190E00E94EB
:101EB00006350E94FB0E2896E2E00C9410340E9436
:101EC000030F0895682F8EE090E00E94F434089587
:101ED000A6E0B0E0EEE6FFE00C94F2330E94982A10
:101EE0008C018091F2029091F3028017910781F0AA
:101EF00019821A820E94982A682F49815A81792F63
:101F000080E090E00E9456051093F3020093F202E5
:101F10002696E4E00C940E340E94B81260930203FB
:101F20007093030380930403909305036093FE0270
:101F30007093FF0280930003909301030895089526
:101F400008950E949F0F089508950E94A40F0E9473
:101F5000A10F089508950E94AA0F089508950E9460
:101F6000AE0F0E94AB0F089581E008958DED92E1D0
:101F70000E9401170E94A00F0E94A50F08950E94C1
:101F8000A61408950895089508950E94C20F0E940E
:101F9000C30F0E94C40F08950E94C00E811102C099
:101FA0000E945F0F0E94CB0E809306030E94DC0EFE
:101FB0009093C8038093C7030E94B11F0E94D00E64
:101FC0000E94500980915602909157020E94710917
:101FD00008950E948F2A0E9492120E94AC140E94BF
:101FE000FD130E94CC0F0E9430050E94E1200E9448
:101FF000071E0E94BE140E94AF0F08950E94A614EF
:1020000081110E9402220895A6E0B0E0EAE0F0E12A
:102010000C94EB330E94B40F81110EC00E94680F24
:102020000E94FE0F0E94521F0E9441260E943D0501
:102030002696EBE00C9407340E94201484EFA82E1F
:1020400082E0B82E750110E0F70101917F01812F28
:102050000E94F9121F5F1A3009F441C00817A1F35A
:102060008091060381FD0E94FF120E94BF0FC82EBF
:1020700010E099249394812F0E94F912082FF50102
:1020800081915F01081729F1F12CEE24E394D02E01
:10209000D8268D2D8E21A9F0CC2099F0F9821A83B3
:1020A0000E94982A9C838B839D8291E0802F8E21B1
:1020B00009F490E049815A816B817C818D810E9475
:1020C0005605F394EE0CF7E0FF12E3CFF5013197DC
:1020D00000831F5F1A3079F60E948C0FA1CF08137E
:1020E000BFCF9CCF1F93CF93DF930E94A111EC0130
:1020F000C11580E5D807F0F5C11580E4D80708F0D0
:102100009CC0C03ED10520F5CD3CD10508F082C071
:10211000C83AD10578F4C53AD10508F073C0C1308A
:10212000D10519F1209709F1C430D105F0F4D0E0C0
:10213000C0E01BC0C33CD105D0F7C85AD0E0CC0FDB
:10214000DD1FC055DE4F0990D881C02DD4640DC06D
:10215000C11580E2D80708F0D1C0C11581E0D807C9
:1021600008F05AC0C83ED10510F7CE01DF91CF91DB
:102170001F910895C03682E5D80718F5C03482E56E
:10218000D80708F06BC0C03282E5D80708F05FC0FE
:10219000C11582E5D80708F497C02C2F26952695FF
:1021A00080E2289F900111248C2F8370C1E0D0E041
:1021B00002C0CC0FDD1F8A95E2F7C22BD32BDD685E
:1021C000D4CFC03A82E5D80760F4C03882E5D8079A
:1021D00008F459C0CF71D0E0DC2FCC27C46FD06A8F
:1021E000C4CFC03C82E5D80708F462C0C03E82E597
:1021F000D80708F09CCFDC2FCC27CC27DF71C06F2D
:10220000D06AB3CFC55AD0E0CA51DE4FC881D0E002
:10221000D064ABCFD065A9CF8D2F0E944312182F69
:10222000CE0199270E94A111C12FD0E0DC2FCC272D
:10223000CC27DF71C82BD92B98CFCE0199270E94CC
:10224000A111CC27DF70C82BD92BD06A8ECFCF71CC
:10225000D0E0DC2FCC27C16FD06A87CF2C2F2695FA
:102260002695277080E2289F900111248C2F83707F
:10227000C1E0D0E002C0CC0FDD1F8A95E2F7C22B8F
:10228000D32BDC6872CF2C2F26952695277080E201
:10229000289F900111248C2F8370C1E0D0E002C0F0
:1022A000CC0FDD1F8A95E2F7C22BD32BDA685DCF06
:1022B0008C2F8F710E944312C82FD0E0DC2FCC27C7
:1022C000CC27DF71D06251CF8C2F8F710E944312C7
:1022D00055E0D695C7955A95E1F7CF70D0E0DC2F41
:1022E000CC27282F30E084FF05C044E0220F331FA5
:1022F0004A95E1F7C22BD32BD06937CF8D2F8F7141
:102300000E944312182FCE0199270E94A111C12FBC
:10231000D0E0DC2FCC27CC27DF71C82BD92BD2CF34
:10232000462F7A3030F4673020F4672F0E946E0316
:10233000089590E080E008950E9490110E9472102C
:10234000089582389105B9F1B0F48133910509F40B
:102350007DC048F48932910509F46DC08A32910537
:1023600009F47BC008958533910509F45FC0893372
:10237000910509F10895833E9105D9F138F4803E25
:10238000910529F1823E910579F10895863E9105E6
:10239000D9F1873E910509F43EC0843E910541F58F
:1023A0002091C80321FF24C08091C70384FD19C078
:1023B00087EE90E008952091C703237009F05AC07A
:1023C0002091C80323FF14C089E290E00895209172
:1023D000C70320FD38C03091C80330FF09C024FF77
:1023E00043C090E080E008952091C70322FDF7CF1D
:1023F00008952091C70322FD3AC03091C80330FDF3
:1024000039C024FFF5CFEDCF2091C70323FFF0CFD4
:1024100024FDE7CFCDCF2091C70323FD2EC03091FF
:10242000C80331FFEECF84EE90E008952091C703FA
:1024300025FFDECFC9CF2091C70325FD21C0209104
:10244000C80323FFD5CF89E390E0D2CF2091C70303
:1024500026FFCECF8AE290E008952091C70326FFA1
:10246000C7CF81E390E0089583EE90E0089582EE77
:1024700090E0089580EE90E0089586EE90E0089553
:1024800085E390E008959091C70392FF10C041E06A
:10249000282F2471243009F040E031E0282F2871E2
:1024A000283009F030E0431711F02CE0822793FF29
:1024B00010C041E0282F2471243109F040E031E0C0
:1024C000282F2871283109F030E0431711F02CE053
:1024D00082273091C80330FF10C051E0282F2171AE
:1024E000213009F050E041E0282F2871283009F010
:1024F00040E0541711F029E0822731FF10C041E07D
:10250000282F2171213109F040E031E0282F287176
:10251000283109F030E0431711F029E0822794FDBB
:10252000877E08951092C9031092CA031092CB03BC
:102530001092CC030895CF92DF92EF92FF926B013D
:102540007C010E94A61481110EC00E94A42AC61A02
:10255000D70AE80AF90AC092C903D092CA03E092E6
:10256000CB03F092CC03FF90EF90DF90CF900895D3
:102570000F931F930E94A614882329F00E94A42A77
:102580001F910F9108950E94A42A0091C9031091F0
:10259000CA032091CB033091CC03600F711F821FBF
:1025A000931FEECF0E94A614882319F00E94982A48
:1025B00008950E94B812CB01089580E00895CF934A
:1025C0009C01205E3245C1E02032310538F4FB0128
:1025D000C581C11103C08F710E9462048C2FCF91FD
:1025E000089508950E94F112089508950E94F51229
:1025F0000895E82FF0E0E852FC4F80810895089597
:1026000080EA8A95F1F7089500C008950E940013AA
:10261000089508950E9409130895A5E0B0E0E3E14C
:10262000F3E10C94F0330E94A614F82E6091E203BB
:10263000882309F440C085E0E82E8E010F5F1F4F0C
:10264000F8018E2D11928A95E9F7862F90E0B80156
:1026500088529C4F0E94CC148823B9F08091CD03FE
:1026600090E045E050E0B80188529C4F0E94BA3497
:1026700021E020930703892B91F4F12C0E94F6129C
:102680008F2D2596E6E00C940C3480910703882367
:10269000A1F3F8011192EA94E9F710920703A091CF
:1026A000CD03B0E0A852BC4F85E0F80101900D9237
:1026B0008A95E1F7E3CF70E068527C4F8091CD03BB
:1026C00090E088529C4F0E9453150E940A13D8CF65
:1026D000F894E82FE295EF70F0E031A1282F2F70E9
:1026E00081E090E001C0880F2A95EAF7982F909535
:1026F000932391A392A1892B82A3789408950F9399
:102700001F93CF93DF93C0EFD1E089918F3F11F0FA
:102710000E94681381E0C53FD807B9F7C9EED1E040
:1027200000EF11E089918F3F11F00E9468130C17A0
:102730001D07C1F7DF91CF911F910F910895B0E070
:10274000A0E0E5EAF3E10C94EE33EC01D62E062F7F
:1027500010E0C80180519E4F7C01FC0180818F3FB9
:1027600009F444C0F894E82FE295EF70F0E091A1ED
:102770008F7021E030E001C0220F8A95EAF7892F9F
:10278000822B81A382A12095282322A378940E94E2
:102790000413E9EEF1E031E0C12C21912F3F59F112
:1027A000A22FA295AF70B0E090968C9190E02F7020
:1027B00002C0959587952A95E2F780FD1CC0832F6E
:1027C000C82A330F81E0E03FF80739F7F70180812D
:1027D0008F3F11F00E94681361E0C11001C060E0FA
:1027E0008D2D0E940613C00FD11FC882CDB7DEB752
:1027F000E8E00C940A3480E0E3CF80910C018091F2
:102800000C0195E0811190E09093E20385E0891B33
:102810008093CD030E947F138AE0E8EDF3E0DF01AF
:10282000982F1D929A95E9F7EEECF3E0DF011D92E7
:102830008A95E9F785E00E945E140E94F2120895DD
:10284000AAE0B0E0E6E2F4E10C94F1338E010F5F10
:102850001F4F8AE0F80111928A95E9F7F12C6F2D4C
:10286000C8010E949F13F394F5E0FF12F8CF4AE0ED
:1028700050E0B8018EEC93E00E94BA3421E000975A
:1028800009F420E0892B41F08AE0F801AEECB3E0D6
:1028900001900D928A95E1F76091E20370E0685231
:1028A0007C4F45E08EEC93E00E945F14182F0E944D
:1028B0000D13812B2A96E5E00C940D340895B0E0B9
:1028C000A0E0E5E6F4E10C94EE336C017B01042F0B
:1028D000C22F222379F081E080930A030E94982A74
:1028E000909309038093080380E0CDB7DEB7E8E05A
:1028F0000C940A34D0910A03DD23B1F380910803CC
:10290000909109030E94162A059770F310E0A80120
:10291000B601C7010E94BA34892B31F0A801B60173
:10292000C7010E94C734CD2F10920A038C2FDDCF30
:10293000CF930E943C33C82F811102C00E943733CD
:102940008C2FCF91089580910E03089580910D03EF
:1029500008950E94A61408950E94981480930D0370
:102960000E94A91480930E030E94A31480930C016B
:102970000E94A61481110E94021508950E94A614B7
:10298000811102C00E940515089581E090910F0306
:102990009A3008F080E008950F931F93CF93DF9350
:1029A000EC018B0180910F038A30B8F4B801CE019D
:1029B0000E945015C82F811122C080910F038F3FB4
:1029C000B9F40E94982A90930C0380930B038C2FE8
:1029D000DF91CF911F910F91089580910B039091FA
:1029E0000C030E94162A843F914000F7C0E0EFCF0D
:1029F0008F5F80930F038A3020F7C1E0E8CF1092F9
:102A00000F03E5CF0E94482B08950E944B2B089599
:102A1000B0E0A0E0EEE0F5E10C94EF337901C82FCF
:102A2000880FDD0B41155105A9F0FE0193E0EE0F73
:102A3000FF1F9A95E1F7E35FFE4F81819281805FEE
:102A40009C4F208130E04217530708F49A01A901F6
:102A50000E94C734CE010E94342CD82E8823D1F096
:102A600001151105B9F083E0CC0FDD1F8A95E1F760
:102A7000FE01E35FFE4F438150E00417150708F4A1
:102A8000A801C35FDE4F6C817D81605F7C4FC70111
:102A90000E94C7348D2DCDB7DEB7E7E00C940B3420
:102AA0000E947D1608950E949E160895A4E0B0E04D
:102AB000ECE5F5E10C94F23360913203709133034D
:102AC00080913403909135030E94202A11E06436EE
:102AD00071058105910518F10E94B8126E5F7F4F54
:102AE0008F4F9F4F69837A838B839C8310E000E034
:102AF00030E020E044E050E0BE016F5F7F4F82E0B5
:102B00000E940815182F882351F00E94A42A609370
:102B10003203709333038093340390933503812FF2
:102B20002496E4E00C940E34B0E0A0E0EAE9F5E18C
:102B30000C94EC337C015B016A010E94C51401E036
:102B400010E0882311F00AE010E0C1E0D0E0B50108
:102B5000C701F6010995811104C021960C171D07C4
:102B60002CF4CDB7DEB7EAE00C940834CC9F90018A
:102B7000CD9F300D300D112490E080E045E34A9563
:102B8000F1F70000019682179307C1F7E0CFABE0A1
:102B9000B0E0EDECF5E10C94F233CE0101960E9429
:102BA000241D1B8560913603709137038091380393
:102BB000909139030E94202A6436710581059105A0
:102BC00010F41123C1F010E000E030E020E04BE011
:102BD00050E0BE016F5F7F4F83E00E94081588239D
:102BE00069F00E94A42A60933603709337038093A0
:102BF0003803909339030E94211D81E02B96E4E075
:102C00000C940E34A6E0B0E0E8E0F6E10C94EC336E
:102C10007B01C090F501D090F60101E010E09E012B
:102C20002A5F3F4F50E040E070E060E080E00E94AB
:102C30000815182F882309F448C056018FEFA81AE9
:102C4000B80A60912E0370912F0380913003909108
:102C500031030E94202A643671058105910568F1CF
:102C600005E010E09E012F5F3F4F50E040E070E034
:102C700060E081E00E940815D82E65E070E0C50193
:102C80000E94E22011E09E81981310E01D2141F185
:102C90000E94A42A60932E0370932F038093300325
:102CA0009093310385E0FE013196A9E2B3E00190F3
:102CB0000D928A95E1F711E013C065E070E0C5015F
:102CC0000E94E2209E818913CBCF85E0F6013196E8
:102CD000DE01119601900D928A95E1F71111E2CF74
:102CE00085E0E9E2F3E0D70101900D928A95E1F7E2
:102CF000812F2696EAE00C9408340F931F93CF930C
:102D0000DF93EC018B0142E056E10E9494158111A2
:102D100006C080E0DF91CF911F910F91089546E5A5
:102D200055E1B801CE010E949415882391F347EC38
:102D300055E1B801CE010E949415ECCFABE0B0E0B4
:102D4000E4EAF6E10C94EE330091F5011091F601FE
:102D5000C801019625E0FB01DC0101900D922A9546
:102D6000E1F765E070E00E94E220F801808366816F
:102D7000778180859185C0902503D0902603E090CF
:102D80002703F09028036C157D058E059F0551F0F3
:102D90006093250370932603809327039093280361
:102DA0000E949B128BE0F8013A96DE011196019089
:102DB0000D928A95E1F7F801148A8B85882329F012
:102DC00060E0CE0101960E944D1E2B96E8E00C9427
:102DD0000A340E94041008950E94312A0E94F32DA3
:102DE0000E94B60F0E940D2E0E94E90F0E941A2E1B
:102DF0000E941F2E0E94E9160E94392E0E94C50FC4
:102E0000F7CF90932B0280932A0208950F931F937C
:102E1000CF938C01FB01C581CC2309F447C00E94EC
:102E2000820D8272F801E052F847EB30F10538F478
:102E3000EB5AFA4C0C94AD330E94F91DC0E08C2F74
:102E4000CF911F910F910895882329F00E94E71DCB
:102E5000F5CF8823D9F30E94D71DF0CF882329F01E
:102E60000E94161AEBCF8823D9F30E94071AE6CFE7
:102E7000882329F00E94381AE1CF8823D9F30E94D1
:102E8000271ADCCF882329F00E945A1AD7CF88232B
:102E9000D9F30E94491AD2CF882329F00E94D01872
:102EA000CDCF8823D9F30E94B018C8CFC1E0C7CFD7
:102EB000EF92FF920F931F93CF93DF939B01682FA5
:102EC00031110EC0442329F0E82FF0E0EA50FC4F06
:102ED0006491762F862FCDB7DEB7E6E00C940C34E4
:102EE000C32FD0E0E82FF0E0442321F0EA50FC4F5C
:102EF000E491F0E046E0249FC00111240FEF10E0C0
:102F0000B8010E946333AB01822F90E0880F991FB4
:102F100025E5249FB001259F700D1124861B970B7A
:102F2000982F990F980FB8016C1B7D0B6E9FD001E5
:102F30006F9FB00D7E9FB00D11248B2F939F90013A
:102F40001124232F3327B801621B730B6E9F90014E
:102F50006F9F300D7E9F300D11247801E91AF10822
:102F6000EC9EB001ED9E700DFC9E700D1124672F3C
:102F70007727061B170B0E9FE0010F9FD00D1E9F9A
:102F8000D00D11247D2F9E2F4230510599F048F429
:102F90004115510569F04130510581F07B2F832F98
:102FA00007C04430510569F080F046305105B1F753
:102FB000692F91CF9B2F8D2F7E2FFACF7E2F932FAE
:102FC000F7CF9D2F7B2F8E2FF3CF732F9B2FFBCF10
:102FD00041E00E945817089508950E94E817089547
:102FE00090913001291B922FE0912402F09125024B
:102FF000242F462F682F892F90E009950895CF93AD
:10300000DF93762FE901682F842F0E94ED17962F0A
:10301000672F9E01482F892F0E94F017DF91CF91D3
:1030200008958091E303982F9C7F29F48370846036
:103030008093E30308958C3AE8F38370886AF8CFAD
:10304000B0E0A0E0E6E2F8E10C94EE3388E090E036
:103050000E94D8346B017C0183E290E00E94D0345E
:10306000282F30E040E050E060E070E080E090E049
:1030700000E20E941B34B22FA32FF42FE52FD62F8E
:10308000C72F97018601BC29A12BFE295E2F532B48
:103090002B2F3A2F4F2F6D2F7C2FCDB7DEB7E8E0C7
:1030A0000C940A34B0E0A0E0E8E5F8E10C94EA33CF
:1030B00049015A016B017C010E9411188401A4018D
:1030C0006A2D7B2D88E090E00E94063594014A2D00
:1030D0005B2DB601C70100E20E943634622F83E205
:1030E00090E00E94F434CDB7DEB7ECE00C940634E7
:1030F000E3EEF3E085E0808311828FEF82838383A8
:103100001482ACE8B3E012968C9112978360129609
:103110008C93758125E030E04FEF5FEF60E08681B2
:1031200097810E94521808959091E703933018F404
:103130009F5F9093E703882391F02091E303309100
:10314000E4034091E5035091E6036091E703709139
:10315000E8038091E9039091EA030E9452180895D0
:1031600081E00E94941808959091E703992319F043
:1031700091509093E703882391F02091E3033091DD
:10318000E4034091E5035091E6036091E7037091F9
:10319000E8038091E9039091EA030E945218089590
:1031A00081E00E94B41808950F931F93CF938091EC
:1031B000E30380FF09C0E0912802F09129020995FC
:1031C000CF911F910F910895C09132010091240277
:1031D0001091250280913301C81768F78091300162
:1031E0009C2F981B892F20E040E060E090E0F801E0
:1031F0000995CF5FEFCFEF92FF920F931F93CF937D
:10320000DF93D82F162F042F8091E30380FF0CC08B
:10321000C0913201E0902402F090250280913301A8
:10322000C81738F00E94D418CDB7DEB7E6E00C948A
:103230000C34809130019C2F981B892F202F412F17
:103240006D2F90E0F7010995CF5FE8CF762F909131
:10325000E30390FF0AC0682F842F0E94E817962F7F
:10326000672F482F892F0E94FB180895CF93DF9373
:10327000EC01EC81F0E0EF50FD4F4491E3EEF3E020
:10328000628181810E9426198C818F5F8C83DF91FE
:10329000CF910895CF93DF93EC01E3EEF3E0438108
:1032A00062818C810E9426198C818F5F8C83DF91D3
:1032B000CF910895CF93DF93EC014091E6039C8179
:1032C000892F817090FD842F692F627091FD642F8A
:1032D00092FF40E00E94FB188C8190E0019687707D
:1032E00099278C83DF91CF910895B0E0A0E0EBE7C0
:1032F000F9E10C94EF33D82F062F142FE22E909182
:10330000E30390FF3FC02091E403281308C080919D
:10331000E503861304C08091E603841729F08091A9
:103320008E03826080938E03E92FE695E695AE2F9B
:10333000B0E0A950BE4F8C9180938C039C7F943059
:1033400031F56D2F702F812F0E94E817962F672F70
:10335000482F892F0E94FB18D093E4030093E503C4
:103360001093E603EE2071F02091E3036091E703F0
:103370007091E8033D2FA8018091E9039091EA0341
:103380000E945218CDB7DEB7E7E00C940B348230C0
:1033900019F41091E603E0CF863061F1893051F1E4
:1033A0008931D1F6E9518E2F8170D82EE695F0E063
:1033B000EF50FC4FC491F12C60913401F61618F0D7
:1033C0000E94D418C9CFFC9EC001112470E00E9455
:1033D00063338D2FD1100CC0860F209132012F0D39
:1033E0003327331F412F602F0E94FF17F394E4CF40
:1033F000861BF3CFD22FB0CFE3EEF3E09181282FDD
:103400004381628188E0890F0E947519089581E0E7
:103410000E94FC190895E3EEF3E09181282F438187
:10342000628188EF890F0E947519089581E00E94DA
:103430000B1A0895E3EEF3E0628128E0620F08F4CE
:103440006FEF282F438181810E947519089581E0D3
:103450000E941A1A0895E3EEF3E0628128E0621BED
:1034600008F460E0282F438181810E947519089536
:1034700081E00E942B1A0895E3EEF3E0438128E0F7
:10348000420F08F44FEF282F628181810E94751945
:10349000089581E00E943C1A0895E3EEF3E0438131
:1034A00028E0421B08F440E0282F628181810E94BD
:1034B0007519089581E00E944D1A089520E00E9438
:1034C00075190895EF92FF921F93CF93DF93EC014C
:1034D00010E0EE24EA94F12C60913401161770F09C
:1034E0000E94D4189A818C8190FF1EC08F5F8C83BC
:1034F000DF91CF911F91FF90EF90089520913201BD
:10350000210F3327331F70E0C7010E947733962FB6
:103510008C814091E6036091E503199F800D112491
:103520000E94FF171F5FD8CF8150E1CFB0E0A0E02D
:10353000ECE9FAE10C94EA33EC018A81BB24BA94F9
:1035400080FD02C0BB24B3948C8181110AC081E04C
:10355000B81226C080913401815080933B0381E0F2
:103560008C83A12CE0902402F09025029EE0992EFD
:1035700080913401A816B8F00E94D41880913B03C2
:10358000F1E0BF1257C0811150C0809134018150C9
:1035900080933B031C82CDB7DEB7ECE00C9406347D
:1035A00010923B03DCCF8091320190913001891B56
:1035B0008A0D20E040E060E090E0F701099504E02A
:1035C00010E0812CCA2CD12C80913B03880D8F30C8
:1035D00034F1692D0E945533892F082E000C990B68
:1035E000C816D906B1F4209132012C0D3D2D311DA4
:1035F0008091E603809FA001819F500D1124559575
:103600004795559547956091E5038091E4030E94A5
:10361000FF178B0C01501109B9F6A394A9CF87FFAE
:10362000DCCF90913401890FD8CF815080933B0338
:10363000BC82B1CF90E001966091340170E00E94AD
:10364000773380933B038C83A6CFEF92FF921F9337
:10365000CF93DF93EC018C81811109C081E08C83D1
:1036600010923A0392E090932F0180932E011091D3
:103670003201E0902402F090250280913301181766
:1036800078F110E0E0902402F0902502609134017E
:10369000161798F10E94D41880912E0120913A03B8
:1036A000280F20933A0390912F01980F90932F01A8
:1036B000191654F4022E000C330B40913401415082
:1036C000550B2417350734F0819580932E018130F6
:1036D00009F41C82DF91CF911F91FF90EF90089524
:1036E00080913001912F981B892F20E040E060E00D
:1036F00090E0F70109951F5FC0CFE12FF0E070E087
:10370000CF010E94773320913201820F20913A033A
:10371000022E000C330BE217F307A4F020912F01C7
:10372000022E000C330B2E173F0764F0282F30E0D9
:103730004091E6036091E5038091E4030E94FF1746
:103740001F5FA4CF90913001891B20E040E060E032
:1037500090E0F7010995F4CFB0E0A0E0E2EBFBE1E7
:103760000C94EA33EC014C81042F10E09801D8014D
:103770000E94BB339B01AC010E94D1334B015C0121
:10378000E0E2F0E0E01BF10BA5E5B0E0AC019B014D
:103790000E94D1336B017C019F01DF010E94B33392
:1037A0009B01AC010E94DC339B01AC01280D391D4B
:1037B0004A1D5B1DC701B6010E948B33F22E822F7A
:1037C00090E039E23F1520F143E0249F900111245D
:1037D00035952795122F109500E085E5E82EEF1816
:1037E00080913401081720F10E94D4189C8181E057
:1037F000992319F0903219F48FEF80932D01809165
:103800002D01890F8C83CDB7DEB7ECE00C94063424
:1038100025E530E0A901481B590BCA019A01220F86
:10382000331F280F391F37FFD3CF2F5F3F4FD0CF24
:103830008E2D01FD8F2D20913201200F3327331F54
:10384000412F6091E5030E94FF170F5FC9CF0F93CF
:103850001F93CF93DF938C01D0E0C0E090913401AF
:103860009C171D0609F074F40E94D418F801848195
:1038700090E00196817099278483DF91CF911F9109
:103880000F910895F8014481209132012C0F3D2FB2
:10389000311D6091E5038091E40396959C171D0608
:1038A00049F044F0442341F04091E6030E94FF17A1
:1038B0002196D4CF4423C1F340E0F8CFB0E0A0E09C
:1038C000E4E6FCE10C94E633FC016280448081E094
:1038D0008483E1EFF2E07490E0E7F3E0E491C091DB
:1038E000E603C695C158D0E0CC0FDD1FCD2FDD27F4
:1038F000812C25E0922EAA24AA94B12C55245A9406
:10390000E719EE2EF12C80913401881638F00E94D0
:10391000D418CDB7DEB7E0E10C940234C82CD12C1A
:1039200082E0861568F09C9CF0019D9CF00D1124AE
:10393000E15CFC4F8091E40380838091E503818307
:1039400041101CC09C9CF0019D9CF00D1124E15C79
:10395000FC4F13821282209132012C0D3D2D311D1E
:103960009C9CF0019D9CF00D1124E15CFC4F428178
:10397000618180810E94FF178394C5CF9C9C800148
:103980009D9C100D1124015C1C4FF801838188233C
:10399000F1F081508383859DC0011124648170E022
:1039A0000E946333FB01FF27EF50FD4F8491E82F06
:1039B000E719E59DC0011124B7010E94633380918E
:1039C000E603689FB0011124F8017283C4CF0E94FE
:1039D0009D34B5010E9477338C179D070CF0BBCF47
:1039E000F2E0F61598F40E949D34B5010E947733F9
:1039F000F80180830E949D342091E5032695622F73
:103A000070E00E947733280FF80121839C9CF0011D
:103A10009D9CF00D1124E15CFC4F12828091E60325
:103A2000893C58F088EC9C9CF0019D9CF00D112481
:103A3000E15CFC4F848383838ECF8431A0F784E1E3
:103A4000F2CF10928E03089528E0E3EEF3E0DC015C
:103A500001900D922A95E1F720918C0330918D030E
:103A600040918E03FC012087318742870895ECE85E
:103A7000F3E011828281846082830895E3EEF3E0B3
:103A800080818E7F80830E94371DECE8F3E0828185
:103A9000816082830E94D4180895E3EEF3E02081D0
:103AA0002E7F20833181428153816481758186819B
:103AB00097810E9452180E94371DECE8F3E0828142
:103AC000816082830E94D41808956091E303669513
:103AD000669570E04BE050E085E391E00E94AD34E4
:103AE000892B19F481E080938D030E94D212909368
:103AF00086038093850380918E03846080938E0378
:103B000008959091E30390FF39C09370811137C0FD
:103B100094609093E30380918E03816080938E0381
:103B2000662391F02091E3033091E4034091E50393
:103B30005091E6036091E7037091E8038091E903F7
:103B40009091EA030E9452186091E303669566958E
:103B500070E04BE050E085E391E00E94AD34892BAA
:103B6000B1F00E94371D81E0809388034091E60305
:103B70006091E5038091E4030E945E1A08958B3200
:103B800010F0986AC6CF880F880F982BC2CF0E947A
:103B9000651DE9CF682F9091E3039695969581E096
:103BA000890F8B3208F081E00E94811D089581E029
:103BB0000E94CA1D0895682F9091E30396959695EB
:103BC0008FEF890F09F48AE20E94811D089581E038
:103BD0000E94DB1D089561E00E94811D0895E3EEBF
:103BE000F3E0808181608083869586950E94EB1D3D
:103BF00008958091E30380FF03C00E944D1D089546
:103C00000E94EF1D089560E00E94811D089580913B
:103C10008B03811141C00E9420182093E30330934D
:103C2000E4034093E5035093E6036093E703709346
:103C3000E8038093E9039093EA0380918E03836005
:103C400080938E032C7FA1F40E9478180E94201884
:103C50002093E3033093E4034093E5035093E6039A
:103C60006093E7037093E8038093E9039093EA037A
:103C70000E9411180E94371DE0912202F091230248
:103C800009958091E30380FF04C0869586950E9484
:103C9000031E81E080938B0308951F93CF93DF93DE
:103CA000EC01162F8A8580FF0DC0888180FF25C01A
:103CB0008091E30381608093E303888186958695F4
:103CC0000E94811D8A8581FF06C0212F4B816A8158
:103CD00089810E9475198A8582FF05C0898588239C
:103CE00079F00E94651D8A8583FF03C081E080937F
:103CF0008803DF91CF911F9108950E943E1DE2CF6E
:103D00000E94371DF0CFEF92FF920F931F93CF9336
:103D1000DF9380918D03882309F464C080918C0324
:103D2000E091E303E695E695E81BE0938703823094
:103D300009F05DC0F0E0E351FD4FE491CE2FD0E0FB
:103D400006E319E180918803882361F010928803CB
:103D50000E94D212909386038093850310928A0367
:103D6000109289030E94D212E0918503F09186039C
:103D70009C012E1B3F0B2F3F3F47A0F520913E0398
:103D80002223B1F010923E0320913C0330913D0379
:103D9000821B930B8F3F9F4758F4205D3A48309326
:103DA0003D0320933C0380918E03886080938E03B3
:103DB000E0908903F0908A03EC0FFD1FF0938603D7
:103DC000E093850385E893E0F801099580918903E4
:103DD00090918A03892B31F4E114F10419F081E008
:103DE00080933E03CDB7DEB7E6E00C940C3486300A
:103DF00049F4F0E0E651FD4FE491CE2FD0E00AE423
:103E000019E1A0CF893051F4E695F0E0E951FD4F7A
:103E1000E491CE2FD0E002E61AE194CF8F3051F436
:103E2000E695F0E0EC51FD4FE491CE2FD0E006E9AD
:103E30001AE188CF853149F4F0E0EF51FD4FE4916C
:103E4000CE2FD0E005E21BE17DCFC8E2D0E00CEA46
:103E50001BE1883109F476CF833239F4EFEDF2E0DB
:103E6000C591D4910AE519E16DCFC4EFD1E007E225
:103E70001CE1843209F466CFC0EDD7E00CEE17E107
:103E8000853209F05FCF8E2F63E00E944933E92F1E
:103E9000F0E0E452FD4FE491CE2FD0E00EE51CE1BE
:103EA00051CF08950E94831E0895539A0895FC01EE
:103EB000EE0FFF1FE80FF91FE551FC4F61834083B0
:103EC00022830895EBEEF3E081836083428333968F
:103ED00094E0E531F907C1F708953BB1377F2BB185
:103EE00028604FB7F8948BEE93E0FC015191CF011D
:103EF00068E02BB9000000C057FF3BB9550F000028
:103F000000C000C000C03BB900C06A9591F7F4E062
:103F100085319F0751F74FBF8FE594E00197F1F787
:103F200000C0000008950E94B90E089580E00E942C
:103F3000F912817008950E9420142FEF86E791E016
:103F4000215080409040E1F700C000000E94201402
:103F50000E94961F882321F00E94931F0E94D42A5A
:103F600008950E949B1F0895EBEFE80FEF3308F0D0
:103F700066C0F0E0E05AFA4C0C94AD330E945F0F3B
:103F800081E0089580910603807F8093060381E09D
:103F90008093920308950E949004F2CF90910603BB
:103FA000892F8E7F90FF81608093060380FDE8CF8C
:103FB000817F80930603E4CF90910603892F8D7F44
:103FC00091FF82608093060381FFDACF8091060320
:103FD0008160EFCF90910603892F8B7F92FF8460E1
:103FE0008093060382FDF2CFCBCF90910603892FF9
:103FF000877F93FF88608093060383FDE7CFC0CF60
:104000000E9403099091C703892F97FB87F9805875
:104010008093C703B5CF81E090E00E9450090E94D1
:104020000309AECF895321E030E0A90102C0440F5B
:10403000551F8A95E2F7CA01F0CF8D51F4CF80E089
:10404000089580E008950E9421200895CF93C82FFD
:10405000809192038130B9F0882331F08230A1F150
:104060001092920380E00DC00E94820D8232D1F73F
:104070008C2F0E94212081111BC08C2F0E94B41F05
:104080008170CF9108950E94820D823289F38C2F26
:104090000E94232081110AC0C43199F060F4CB3012
:1040A00029F0C03169F782E08093920381E0E8CF84
:1040B00081E090E0E5CFC93221F0C833B9F380E068
:1040C000DFCF10929203FBCFC93209F440C0F0F465
:1040D000C431E9F1A8F481E0C73099F68093480132
:1040E00084E1809347018AE0809346018EE18093CA
:1040F000450188E08093420188E28093410104C039
:1041000082EE8C0F8A3070F181E0BBCFC03509F4AC
:1041100050C0B8F48AE0CF34B9F7E0918F03F09142
:104120009003309789F32081082E000C990B820FA1
:10413000911D8F3F910509F00CF43FC08FEF8083F4
:10414000E3CFC135C1F181E0C23539F39ACF809117
:1041500091038823C9F21092910310929003109258
:104160008F03D2CFCD51C0939103C330C9F048F42F
:10417000C13099F087E491E0C23051F01092910380
:10418000C3CFC53099F078F081E491E0C630B1F743
:104190009093900380938F03B7CF88E491E0F8CF9A
:1041A00086E491E0F5CF85E491E0F2CF82E491E0FE
:1041B000EFCF86EFB2CF8FEFB0CF97FFC0CF108297
:1041C000A3CF0895FC01680F791F8FEF91E3E617E5
:1041D000F70709F408952191822728E030E087FF4E
:1041E00006C0880F892721503109C9F7F0CF880F01
:1041F000FACFCF93DF93EB0186319C4711F50E94F4
:10420000820D9D81992399F08A7A91E009F490E0DA
:1042100090939303811109C089E20E9411290E94A1
:104220004B0E80E0DF91CF91089585E3F6CF80912A
:104230009303811104C089E20E942B29F0CF85E30A
:10424000FBCF81E0EFCFFC018581862351F4928181
:104250009923B9F06923818583FF05C081E061114D
:104260000FC080E00895892F8F7092959F70982BD2
:10427000862F8F7062956F70682B81E09613F1CF57
:10428000089581E0FDCFCF93DF93EC0160919E0311
:1042900070919F038091A0039091A1030E94202A16
:1042A000643F71408105910518F580919E039091BE
:1042B0009F03A091A003B091A10380939A039093D0
:1042C0009B03A0939C03B0939D0384EF91E0A0E037
:1042D000B0E08093960390939703A0939803B093D4
:1042E0009903D0939503C0939403DF91CF910895E0
:1042F0000E94A42A60939A0370939B0380939C036B
:1043000090939D0382E390E0A0E0B0E0E2CFFF92C3
:104310000F931F93CF93DF93F82E0091A503109175
:10432000A6030115110509F44DC0109295031092D2
:1043300094030E94AE0D0E94A80D0091A503109158
:10434000A603D8011796CD91DC919E013A952115CF
:104350003F4108F4D07ED1E0C11101C0D0E0D801C6
:104360001A96ED91FC911B97309731F01C966D9148
:104370007C9180E00995D823DD2339F08CEF8C0FF8
:10438000813A30F58C2F0E942B29FF2099F0E09183
:10439000A503F091A603818584FD0CC08091A40340
:1043A000882341F0808191819C01215031092F3374
:1043B0003E47A0F00E944B0E1092A6031092A50358
:1043C0001092A403C801CDB7DEB7E5E00C940D341C
:1043D0000E944B0E8C2F0E942C06D7CF0E944321A7
:1043E000E9CF1092400180E00E94872108958091DA
:1043F0004001882319F00E94F121089581E0809303
:10440000400108950F931F93809194039091950319
:10441000892B89F160919A0370919B0380919C0391
:1044200090919D030E94202A00919603109197037A
:1044300020919803309199036017710782079307C1
:10444000D0F080919403909195030E94C003109244
:1044500095031092940310929A0310929B0310926A
:104460009C0310929D031092960310929703109252
:104470009803109299031F910F910895B0E0A0E066
:10448000E4E4F2E20C94E8337C01EB011D8111239A
:10449000C1F08E359C4771F08FE5E8168CE7F80681
:1044A00069F09DE5E9169CE7F90659F40E94F721A9
:1044B000712C0DC081E080934001FACF0E94F12160
:1044C000F7CF70904001711008C077247394872D46
:1044D000CDB7DEB7EEE00C9404345701E0EEAE1A2F
:1044E000B1080E94820DD82E0E946E0D082F0E94E6
:1044F000B10D082B0D29F8E0AF16B10408F083C008
:1045000097012770332781E090E001C0880F2A953A
:10451000EAF7112309F474C0082B888199810E945D
:10452000400AC82F0E947103892B09F4D4C081E08E
:1045300090E06C0102C0CC0CDD1CCA95E2F7612C46
:10454000C62DD0E00E947103C817D90708F0C3C078
:10455000CE010E948203EC01892B09F4BCC0011139
:1045600003C08A8181118AC08B819C818C219D210D
:10457000892B09F483C08985982F977009F487E007
:1045800028E0A216B10408F058C0112309F451C064
:1045900086958170882309F471C088809980E81419
:1045A000F90419F4112309F469C08091A5039091CD
:1045B000A603C817D90709F461C0EE85FF853097B7
:1045C00021F08081882309F459C0602FCE010E9418
:1045D0002321882309F452C0E814F90409F08FC09C
:1045E000E114F10409F490C0111190C08091A2036C
:1045F0009091A3038816990609F040C010E086C088
:10460000809508238ACF112309F44EC0F092A303AA
:10461000E092A2030E94A42A60939E0370939F03DA
:104620008093A0039093A10310929503109294039A
:1046300074CF82FB882780F9ADCF1123F9F0817008
:10464000A9CF0E942C067FC0C7010497813A91052B
:1046500048F48E2D0E941129112309F436CF0E94AF
:104660004B0E26CF0E944B0EEFE3FCE93197F1F79A
:1046700000C000008E2D0E949905EECF639460CF9C
:10468000FC01208131812E153F0531F4111107C045
:104690001092A40380E030C0112309F416CFFC016E
:1046A000818585FD12CFF6CF8091A2039091A3035F
:1046B0008E159F0581F41092A3031092A20310920D
:1046C0009E0310929F031092A0031092A1031092D8
:1046D0009503109294038091A5039091A6030097EF
:1046E00009F4F3CEF8E0AF16B10450F6602F0E9443
:1046F00023218111EACE81E00E948721E8CE811436
:10470000910409F073CF10E0912C812C80E00E947D
:104710008721D093A603C093A50381E08093A403CF
:104720008E810E94AB0D11110EC08114910459F0BD
:10473000888199819C0124503109213A310508F082
:1047400080CF0E942B29EF80F884C7019A958115AC
:104750009F4110F4F0EEFF2201E0C70101978F3373
:104760009E4708F000E0EA85FB85309729F06C85CC
:104770007D8581E009950823002371F08F8198855C
:104780000E9485030E94A50D88E0A816B10408F0D8
:104790005BCFC7010E9443210E944B0E5DCFCF9398
:1047A000DF93EC01FB018581882309F4D2C09E01CF
:1047B00030572332310508F0B2C00E94DC0E9093CE
:1047C000C8038093C703FE01E150F047E232F105D0
:1047D00020F4E156FA4C0C94AD338091C70381600C
:1047E0008093C70393C08091C80388608093C803F7
:1047F0008DC08091C7038260F3CF8091C70384602E
:10480000EFCF8091C7038860EBCF8091C8038160B0
:10481000EDCF8091C8038260E9CF8091C7038061AA
:10482000DFCF8091C7038062DBCF8091C7038064B4
:10483000D7CF0E9403098091C7038068D1CF8091B0
:10484000C7038C60CDCF8091C8038360CFCF8091A8
:10485000C7038E7FC5CF8091C803877FC7CF809164
:10486000C7038D7FBDCF8091C7038B7FB9CF809168
:10487000C703877FB5CF8091C8038E7FB7CF809164
:10488000C8038D7FB3CF8091C7038F7EA9CF80915E
:10489000C7038F7DA5CF8091C7038F7BA1CF0E94D7
:1048A00003098091C7038F779BCF8091C703837FD4
:1048B00097CF8091C8038C7F99CF8091C70382FBEB
:1048C000992790F921E0922790FB82F990FB83F9D8
:1048D00087CF8091C803982F909591708E7F892BF8
:1048E00090FB81F983CF9091C703892F8F7B96FF2F
:1048F000806476CF0E9403099091C703892F97FBAC
:1049000087F980586DCF81E00E94620F8091C703C4
:104910009091C8030E94E10E0E94030980E0DF919C
:10492000CF91089580E0F0CF9091C703892F8F7EBB
:1049300094FF806155CF9091C703892F8E7F90FFA0
:1049400081604ECF9091C803892F877F93FF886045
:104950004DCF81E0E4CF282F35EB2303C001112494
:1049600097FF04C080589109892F089580589F4F60
:10497000FBCF8091AD0380FF0DC06091460170E0D8
:10498000660F771F6038710570F56115710569F163
:10499000862F089581FF07C06091460184E0689FDB
:1049A000B0011124EFCF6091460182FD0AC08091D1
:1049B000AC038823A9F0209145016091460182173C
:1049C00010F088E0ECCF869FC001112433E0880FFF
:1049D000991F3A95E1F7622F70E00E947733D2CFAA
:1049E00068E070E0D5CF8FE7089581E00895809169
:1049F000AD0380FF0CC06091420170E07595679532
:104A0000759567956115710549F1862F089581FFA8
:104A100006C06091420170E075956795F3CF609193
:104A2000420182FD0BC09091AB039923A1F06091EC
:104A3000410180914201961738F0682F70E060388C
:104A4000710500F38FE70895899FC001112470E07C
:104A50000E947733F4CF61E070E0D7CF81E0089512
:104A60008D3C31F40E94B92481958093B10308955F
:104A70008E3C19F40E94B924F8CF8F3C31F40E9487
:104A8000B92481958093B0030895803D19F40E9464
:104A9000B924F8CF893D29F40E94F7248093B2030A
:104AA00008958A3D21F40E94F7248195F7CF8B3D2C
:104AB00031F40E94F72481958093B30308958C3DCF
:104AC00019F40E94F724F8CF9FE2980F983070F401
:104AD000815D990B21E030E001C0220F8A95EAF751
:104AE0008091AF03822B8093AF0308958D3D31F405
:104AF0008091AD0381608093AD0308958E3D21F4D4
:104B00008091AD038260F7CF8F3DB9F78091AD03FF
:104B10008460F1CF4091B0038D3C59F48091B10392
:104B200087FF0DC01092B10341110BC01092AC036E
:104B300008C08E3C81F48091B10318169CF3442385
:104B400081F08091B2039091B303892B09F05AC090
:104B50001092AB0308958F3C49F447FFF0CF1092B9
:104B6000B0038091B1038111ECCFE0CF803D19F407
:104B70001416ACF3E4CF9091B203893D29F41916D1
:104B8000F4F61092B203DBCF8A3D19F497FFD7CF2A
:104B9000F8CF9091B3038B3D29F497FFD0CF1092BB
:104BA000B303CDCF8C3D19F41916CCF3C8CF9FE2D7
:104BB000980F983090F4815D990B21E030E0B901B5
:104BC00002C0660F771F8A95E2F7CB01809590911E
:104BD000AF0389238093AF03B2CF8D3D31F4809131
:104BE000AD038E7F8093AD03AACF8E3D21F48091DB
:104BF000AD038D7FF7CF8F3D09F0A1CF8091AD033D
:104C00008B7FF0CF08950E94982A9C019091B00369
:104C10008091B103982B21F03093AA032093A9032C
:104C20009091B2038091B303982B21F03093A803A5
:104C30002093A7038EEA93E00E940B28089586E054
:104C4000EEEAF3E0DF011D928A95E9F71092AC03DA
:104C50001092AB031092AD030895FC018281811183
:104C60000EC0838181110BC08481811108C091E045
:104C70008581811101C090E0892F8170089581E0C4
:104C8000FCCFA6E0B0E0E7E4F6E20C94F33386E074
:104C9000EEEAF3E0DE01119601900D928A95E1F7BC
:104CA0001092B0031092B1031092B2031092B303AA
:104CB0008B819C81892B89F08091A9039091AA0313
:104CC0000E94162AAC019091AC039923C9F18091FE
:104CD00047018417150608F440C08D819E81892BF9
:104CE00091F08091A7039091A8030E94162AAC012D
:104CF0009091AB03992309F46AC080914301841712
:104D0000150608F472C0BE016F5F7F4F8EEA93E014
:104D10000E945F29811105C08EEA93E00E942D2632
:104D200081110E94032686E0FE013196AEEAB3E0CF
:104D300001900D928A95E1F72696E3E00C940F34EA
:104D4000209148018AE0289F9001112424173507FB
:104D500020F69F5F9093AC0302C09F3FD1F71B8169
:104D6000112359F00E94B9249FEF11160CF491E021
:104D7000899F802D11248093B0031C81112359F049
:104D80000E94B9249FEF11160CF491E0899F802DA9
:104D900011248093B1038091B003882309F49DCF3F
:104DA0001091B103112309F498CF0E94AB248823FA
:104DB00051F08093B003812F0E94AB24882329F007
:104DC0008093B1038ACF81E0F4CF81E0F9CF2091C5
:104DD00044018AE0289F900111242417350708F028
:104DE00092CF9F5F9093AB0302C09F3FD1F71D818D
:104DF000112359F00E94F7249FEF11160CF491E053
:104E0000899F802D11248093B2031E81112359F0B4
:104E10000E94F7249FEF11160CF491E0899F802DDA
:104E200011248093B3038091B203882309F46BCFDC
:104E30001091B303112309F466CF0E94AB24882399
:104E400051F08093B203812F0E94AB24882329F074
:104E50008093B30358CF81E0F4CF81E0F9CF0F9373
:104E60001F93CF93DF93C42FD22FFC01858188231A
:104E7000C9F04093B6030E94982A9093B50380939B
:104E8000B40380E28C0F883040F4C77081E001C029
:104E9000880FCA95EAF70E94A706DF91CF911F916C
:104EA0000F9108951091B603141331C08091B4038B
:104EB0009091B5030E94162AC29748F5C0E2CD0F23
:104EC0001D17B9F080E2810F883040F4177081E03F
:104ED00001C0880F1A95EAF70E94AE06C83048F460
:104EE00081E09D2F977001C0880F9A95EAF70E9484
:104EF000A706802F0E949E06C83078F6D77081E002
:104F000001C0880FDA95EAF70E94AE06C6CF80E2AC
:104F10008C0F883010F6C77081E001C0880FCA95E9
:104F2000EAF7F2CF0F93DB0188519C478730910558
:104F3000A0F5FC01EF53FA4C0C94AD3306E221EEE0
:104F400041EE6AE17CE7CD010E942F2780E00F91BE
:104F5000089507E225EE45EE6BE17CE7F4CF06E22B
:104F600021EE40EE68E17CE7EECF07E225EE44EE6D
:104F700069E17CE7E8CF06E221EE42EE6CE17CE7F6
:104F8000E2CF07E225EE46EE6DE17CE7DCCF08E2FA
:104F900021E045EE6EE17CE7D6CF15968C91882313
:104FA00019F01092B603D3CF81E0D1CF9093BD0317
:104FB0008093BC0308950E94A614811103C08091C0
:104FC000B7030895E091BC03F091BD03309729F039
:104FD0000190F081E02D0995089580E008950E94E8
:104FE000DB270895E091BC03F091BD03309721F0D9
:104FF0000280F381E02D09950895E091BC03F091C2
:10500000BD03309739F026E0DC012C930480F58154
:10501000E02D09950895E091BC03F091BD03309710
:1050200039F022E0DC012C930680F781E02D099510
:105030000895A3E0B0E0EFE1F8E20C94F43320919E
:10504000BA033091BB0328173907A1F09093BB0333
:105050008093BA03E091BC03F091BD03309751F007
:1050600023E029839B838A830084F185E02DCE0190
:10507000019609952396E2E00C941034A3E0B0E089
:10508000E4E4F8E20C94F4332091B8033091B903CE
:1050900028173907A1F09093B9038093B803E091E2
:1050A000BC03F091BD03309751F024E029839B832A
:1050B0008A830084F185E02DCE010196099523961F
:1050C000E2E00C941034CF93DF93C0910A01D091A9
:1050D0000B0122960E94D529813081F48091C7036B
:1050E00087FF0CC0C0910801D091090122969EE172
:1050F00080E0915028F4DF91CF91089596E0F8CFA9
:1051000029912223B1F38F5FF4CFCF93C82F811160
:1051100002C080E024C00E94D529813011F5809121
:10512000C70387FF1EC0EC2FE695E695E695EE31A6
:1051300080F78091080190910901E80FF92FF11D86
:10514000228130E0C77081E090E002C0880F991F93
:10515000CA95E2F72823392381E0232BD1F2CF919E
:10516000089580910A0190910B01FC0132960896F6
:1051700021912C1721F0E817F907D1F7CACF81E068
:10518000EECF9C01FC0132969FEF80E041914617E3
:1051900051F09F3F19F4411101C0982F8F5F863065
:1051A000A9F79F3F09F40895290F311D97FD3A95FE
:1051B000F90162830895FC01329608962191261325
:1051C00003C0DF0111971C92E817F907B9F708959A
:1051D000E62FE695E695E695EE3168F4E80FF92FAF
:1051E000F11D677021E030E001C0220F6A95EAF7F7
:1051F0008281822B82830895E62FE695E695E695D7
:10520000EE3170F4E80FF92FF11D677021E030E006
:1052100001C0220F6A95EAF7209582812823228314
:105220000895CF93C82F0E94D5296C2F813061F447
:105230008091C70387FF08C0809108019091090100
:105240000E94E828CF91089580910A0190910B0166
:105250000E94C128F7CFCF93C82F0E94D5296C2F69
:10526000813061F48091C70387FF08C080910801F5
:10527000909109010E94FC28CF91089580910A0124
:1052800090910B010E94DB28F7CF0E94D529813035
:1052900079F48091C70387FF0BC0E0910801F0917A
:1052A000090132968EE1DF011D928A95E9F7089592
:1052B000E0910A01F0910B01329686E0F4CFDC0117
:1052C000FB0111969C9111978181981322C012962F
:1052D0008C911297882319F0928189131AC0139622
:1052E0008C911397882319F09381891312C0159616
:1052F0008C911597882319F0958189130AC014960B
:105300009C91992321F081E02481291303C080E03E
:1053100001C081E08170089508950E948C2908954C
:1053200081110EC081E080934C0160914901709120
:105330004A0180914B0190914C010E948D29089562
:1053400082E0F1CF83E080934C016091490170913C
:105350004A0180914B0190914C010E948D29089542
:105360000E949029089581E080934C016091490149
:1053700070914A0180914B0190914C010E948D29BE
:1053800008950E94B329089591E0811101C090E031
:1053900090934B016091490170914A0180914B01BA
:1053A00090914C010E948D29089580914B010895A0
:1053B00080934A016091490170914A0180914B01AB
:1053C00090914C010E948D29089580914A01089581
:1053D000809349016091490170914A0180914B018C
:1053E00090914C010E948D29089580914901089562
:1053F000089508950E94F9290895089508950E9436
:10540000F8290895CF930E94FD290E9420140E943C
:10541000FE29C0E08C2F0E94F912811105C0CF5FD8
:10542000CA30C1F7CF91089581E0FCCFCF93DF93CD
:10543000EC010E94982A8C1B9D0BDF91CF9108955F
:10544000CF92DF92EF92FF926B017C010E94A42A1F
:105450006C197D098E099F09FF90EF90DF90CF9026
:10546000089585B7806885BF85B7806885BF089532
:105470001F921FB61F9211248F939F93AF93BF93D8
:105480008091BE03811113C0809115049091160480
:10549000A0911704B09118044196A11DB11D8093ED
:1054A000150490931604A0931704B0931804BF91A9
:1054B000AF919F918F911F901FBE1F901895809163
:1054C0001D04843031F10E9410051092BE0388E162
:1054D00090E020E40FB6F894A895809360000FBE8A
:1054E0002093600083B7817F846083BF83B781602E
:1054F00083BF7894889583B78E7F83BF0FB6F89467
:10550000A89580916000886180936000109260008F
:105510000FBE08950E9403090E941705089582E0B6
:1055200084BD93E095BD9AEF97BD80936E0008957A
:105530002FB7F8948091150490911604A091170448
:10554000B09118042FBF08952FB7F89460911504F7
:105550007091160480911704909118042FBF08953C
:1055600078941F921FB61F9211248F939F93AF932D
:10557000BF938091150490911604A0911704B091E7
:1055800018040196A11DB11D809315049093160473
:10559000A0931704B0931804BF91AF919F918F917E
:1055A0001F901FBE1F90189587E797E790930108FB
:1055B0008093000888E19AE00FB6F894A89580934C
:1055C00060000FBE90936000FFCF88E19AE00FB6B5
:1055D000F894A895809360000FBE90936000FFCF71
:1055E0008EE1489B02C08150E1F7489BFECF0895B1
:1055F000589880E28A95F1F7589A0895FC013BE0AB
:105600003A95F1F798E020E080E031E040E14A95FA
:10561000F1F7880F489B02C08160232742E04A953A
:10562000F1F7000040E14A95F1F7915079F790E1E8
:105630009A95F1F799B132E03A95F1F7000040E11F
:105640004A95F1F7917092272081920F90830895E7
:10565000A1E0B0E0EEE2FBE20C94F03319828C01A1
:105660007C01E60EF11C0E151F0541F481E09981C5
:10567000911180E02196E6E00C940C340E94F02A0F
:10568000CE0101960E94FE2AF80181938F01EBCF93
:10569000509A589A08955098589AE89AE9E6F0E096
:1056A00080818C7F808308956150770B91E001C0E9
:1056B000990F6A95EAF720E031E0911108C02223A2
:1056C00091F0589A80E28A95F1F758980895492FF9
:1056D000482339F0589A232740E24A95F1F79695E6
:1056E000ECCF5898F9CF5898EDCFFF920F931F93B6
:1056F000CF93DF93EC018C01060F111DC017D1076A
:1057000029F4CDB7DEB7E5E00C940D34F9900E9492
:10571000F82A68E08F2D0E94542BF0CF1F920F9231
:105720000FB60F9211240F931F932F933F934F9314
:105730005F936F937F938F939F93AF93BF93EF93F9
:10574000FF93CF93DF930F92CDB7DEB719820E94FC
:10575000F02ACE0101960E94FE2A082F0695069592
:105760000695282F22952570902F9570290F922F3E
:10577000937026952695920F982797708981982B7C
:1057800009F05CC0053008F059C080E18A95F1F756
:10579000589A509A82E08A95F1F700C0589888E0AC
:1057A000089F80011124D801A35FBE4F1696ED918A
:1057B000FC9117973097A9F06091F5017091F6016F
:1057C00014962D913C911597260F371F11968D91A8
:1057D0009C911297680F791F13964C9113978C9197
:1057E0000995F801E35FFE4F6381662351F0209134
:1057F000F5013091F60184819581820F931F0E94FB
:10580000752B0E94F82A80E18A95F1F758985098F4
:10581000589A80E18A95F1F7F801E35FFE4F6081C5
:10582000662351F02091F5013091F601818192813A
:10583000820F931F0E94282B0E94F02A0F90DF9165
:10584000CF91FF91EF91BF91AF919F918F917F91F8
:105850006F915F914F913F912F911F910F910F90F9
:105860000FBE0F901F9018950F931F93CF93DF9348
:10587000EC0105970CF04CC0F894509A589885E0CC
:105880008A95F1F700009C2F969595708C2F857066
:10589000980F892F83709695969523E0CC0FDD1F86
:1058A0002A95E1F7980F8E01092B0E94F82A00C073
:1058B00068E0802F0E94542B80E18A95F1F7509880
:1058C000589A489B1EC087E090E048991CC0FE0192
:1058D000E35FFE4F63816623F9F02091F50130917B
:1058E000F60184819581820F931F0E94282B8111DC
:1058F00013C0509A589A7894DF91CF911F910F91CD
:10590000089500C0DECF019729F4509A589A7894F0
:1059100080E0F2CF00C0D9CF0E94F02A80E28A95C1
:10592000F1F75898509A80E18A95F1F7C35FDE4FFE
:105930006881662351F02091F5013091F60189814B
:105940009A81820F931F0E94752B0E94F82A7894E7
:1059500081E0D2CF9B01BA0190911D049430E9F40B
:105960008F708093E9009FEF8091E800915085FD52
:1059700006C085ED8A95F1F700009111F5CF809171
:10598000E80085FF0AC050E040E0C9010E94B02E47
:105990008091E8008E778093E800089543E050E01E
:1059A000BC0182E00E94AA2C089546E050E0BC01B0
:1059B00082E00E94AA2C089540E250E0BC0182E0FF
:1059C0000E94AA2C0895CF93DF93EC010E94D52961
:1059D00048E050E0BE0181E00E94AA2C88E0FE0170
:1059E000AFEBB3E001900D928A95E1F7DF91CF9193
:1059F000089580911C04811109C00E9440300E94CA
:105A00009D308091E20084608093E20008951092BE
:105A10001C0408950E94B32981E00E94C4290895BE
:105A20006091190481E0611101C080E00E94A22907
:105A3000089590911D0481E0943009F080E0609118
:105A400019040E94B029089542E061EC81E00E94AF
:105A5000BC2F42E261EC82E00E94BC2F90911D04B9
:105A600081E0943009F080E0609119040E9490294F
:105A7000089580911F04833009F461C030F48130AF
:105A8000D1F1823009F49EC008958A3009F48AC0A9
:105A90008B3009F46FC0893009F050C080911E042A
:105AA000813209F04BC08091220490912304029727
:105AB00008F044C08091E800877F8093E8008091DF
:105AC000E80082FF37C09091F3008091F2000297C6
:105AD00031F48091F100813011F0863021F4809111
